:020000040800F2
:1000000020080020590100087F0100088101000834
:1000100000000000000000000000000000000000E0
:100020000000000000000000000000008301000844
:10003000000000000000000085010008BD1A000853
:1000400089010008000000008901000889010008FA
:100050008901000889010008890100088901000858
:1000600000000000890100088901000889010008DA
:10007000A10B0008890100088901000800000000A8
:10008000011C0008000000000000000089010008B9
:100090008901000889010008890100088901000818
:1000A000890100088901000889010008A11F0008D2
:1000B0008901000800F002F800F03EF80CA030C8FA
:1000C000083824182D18A246671EAB4654465D46D4
:1000D000AC4201D100F030F87E460F3E0FCCB64660
:1000E0000126334200D0FB1AA246AB4633431847E1
:1000F0008C270000AC270000103A02D378C878C1E2
:10010000FAD8520701D330C830C101D504680C6059
:10011000704700000023002400250026103A01D378
:1001200078C1FBD8520700D330C100D50B607047AF
:100130001FB51FBD10B510BD00F0D0FC1146FFF774
:10014000F7FF01F0DDFF00F0E8FC03B4FFF7F2FF7A
:1001500003BC00F01DFD00000F4880F308880F4825
:100160000168090E0E4A914205D10E480E49016000
:100170000E480F4901600F4880470F480047FEE7CF
:10018000FEE7FEE7FEE7FEE7FEE700000B480C494E
:100190000C4A0D4B704700002008002004000000AE
:1001A0001F00000018100240010000000000014084
:1001B00000000000851B0008B50000082002002098
:1001C0002008002020040020200400200022030931
:1001D0008B422CD3030A8B4211D300239C464EE062
:1001E00003460B433CD4002243088B4231D303091E
:1001F0008B421CD3030A8B4201D394463FE0C309D0
:100200008B4201D3CB01C01A524183098B4201D3E7
:100210008B01C01A524143098B4201D34B01C01AD2
:10022000524103098B4201D30B01C01A5241C3084A
:100230008B4201D3CB00C01A524183088B4201D3B9
:100240008B00C01A524143088B4201D34B00C01AA5
:100250005241411A00D201465241104670475DE0BA
:10026000CA0F00D04942031000D34042534000223D
:100270009C4603098B422DD3030A8B4212D3FC22E6
:10028000890112BA030A8B420CD3890192118B4265
:1002900008D3890192118B4204D389013AD092117B
:1002A00000E08909C3098B4201D3CB01C01A524136
:1002B00083098B4201D38B01C01A524143098B42FF
:1002C00001D34B01C01A524103098B4201D30B01E8
:1002D000C01A5241C3088B4201D3CB00C01A52410D
:1002E00083088B4201D38B00C01A5241D9D24308F4
:1002F0008B4201D34B00C01A5241411A00D2014631
:10030000634652415B10104601D34042002B00D59A
:100310004942704763465B1000D3404201B500205C
:10032000C046C04602BD7047704770470246C80FBE
:10033000C00781434B0030B54B405B009B0D20D084
:100340001923DB06C91801231B05994220DB03246E
:10035000A40704251346AB400BD3002B04D1EB06B6
:1003600013409B00E34204D40124640700231219C4
:100370005941FF231B0599420BD2C9000143500F7D
:1003800009E0CB0204D501430803024305D0054828
:1003900030BDFF21C905084330BD084607210905C6
:1003A000884330BD0000C07FF0B5F94D0C091E092F
:1003B0002C402E402F468BB0A7437DD0B543FCD0B8
:1003C000002E7AD0002CFCD00D465D40ED0F254369
:1003D000AC1BFF25AD0464190894C502440DC90285
:1003E0002143500DDC0204430120C00701430443B4
:1003F000D2020191200C110C00958C460104234679
:100400008B430A9161460904E24D8A430991010A2E
:100410007D4449198039097805464D4301266D18F8
:10042000F605751B6943C90C640B891C4C436418A1
:10043000B5012C1B250C2E04B4434C434D43210C19
:10044000691889090591009DE90701D00121C907B3
:1004500004912C4601996708CD072F434C08059D50
:10046000E10B4D432D0C29466646754302950D461A
:1004700045432E46029D7D1BB44100950D465D43CC
:1004800001942C0C2F040D465543AE462D0C3D43D4
:10049000029503947546049C2D04641B049406D2B3
:1004A000029C039D641C002675410395029401ACD7
:1004B00070CC009F7D1B01E03EE162E1B441090484
:1004C0000095079101940599A4086143090C0C4615
:1004D0004443650BE7040C4666467443A646640B2A
:1004E0003C43039502947446049DE4042C1B04943D
:1004F00006D2029C039D641C00267541039502945C
:1005000001AC70CC009F7D1BB44101940C465C4350
:100510000095650FE7000C465443A646640F3C4324
:10052000039502947446049DE4002C1B049406D2A7
:10053000029C039D641C002675410395029401AC46
:1005400070CC009F7D1BB441AE09AF06049DC9006D
:10055000AD092F43049DA406AD060495079D3443C1
:1005600069180791059DE10B4D432D0C2946664600
:10057000754302950D4645432E46029D7D1BB441B1
:1005800000950D465D4301942C0C2F040D465543F8
:10059000AE462D0C3D43029503947546049C2D04F4
:1005A000641B049406D2029C039D641C00267541C2
:1005B0000395029401AC70CC009F7D1BB441019463
:1005C0008C050694079C890A611800950791019C87
:1005D0000599A4086143090C0D464543680BEF04D7
:1005E0000D46644665436C0B3C43049FED047D1B44
:1005F000AC4602D20025641C6841009E019D371B59
:1006000085410846584301950C46460FC5005443A2
:10061000600F28436546E4002C1B02D20025401CD5
:100620006E41019D3F1AB5412846BD098006284309
:100630008446A009BF064E020699A4067618074311
:10064000079D002068410A99079019430020099BE3
:1006500000906046FF1913434041E20F64003A43A3
:10066000A4460446D71A8C41A04203D90120009029
:1006700020463A46C70F941840416246D20F2243A3
:10068000644664000494009CBE466400D71AA446E5
:10069000044602978C417746002F01D1A04204D92D
:1006A0006046401C8446029A2046C40FA646941811
:1006B0004041049A0546D20F224364466400D31A8F
:1006C0008D417146002901D1A84202D928461A4617
:1006D000641C10430122002800D016436102002050
:1006E000079B891904465C410223002C02DB491850
:1006F00013466441089DCE0A2D145D194B0567050C
:10070000E10A2C050D1908993E43C9076940002BE1
:1007100008D0934006D30022761C5141002B01D112
:10072000760876001C4A002D43DB154241D0AA43CF
:100730003FD030460BB0F0BD06180D464D41174C6A
:100740007642AC411AD395181C465C41134A6D425F
:10075000A24113D3012252054C00D4420AD15C00BD
:10076000D4420BD04B4002D592021143E2E749003C
:100770004908DFE75940C90FC90718E000200849B8
:10078000D8E7054801420DD10342F7D0F2E7000057
:100790000000FF07A82300000000F07F0000E0FF3A
:1007A0000000F87F114859400143C0124140002029
:1007B000C0E70123089A9B069A4205DC03225207F0
:1007C0008918C90FC907B5E7052252078918074AD2
:1007D0001143D2125140ADE770B515461C46024692
:1007E0000B4628462146FFF7DFFD70BDFFFFFF7F68
:1007F0001F22030C02D10F22000402D0030E03D0EB
:1008000004E00020014670470002083A030F01D1BE
:100810000001121F830F01D18000921E002801DB0E
:100820004000521E120551184205C01241181046D0
:100830007047C10FC90700D04042012292071143FF
:10084000D6E701218907D3E7F0B5FF252D04C609B6
:10085000C209FF2704462E400137CB093E434840DA
:100860002A402B400746002A6BD0002B69D0AA42B1
:1008700067D0AB4265D0002800DA32460125ED058D
:1008800029432C4309022002090AD21A4B0C7F2467
:10089000E31A434C000A7C44E35C7D2424041219CF
:1008A00014145B00A218884201D3521C00E04000DF
:1008B00049420C465C4324115C43DB016415E31898
:1008C000040A5C43C502200D0C4644436419250A02
:1008D0005D432303EC0C0D46654300030019EB1840
:1008E0004C42A34201D35B18401CD4052018002BB6
:1008F00007D05B00C91804D3401C002901D140086F
:1009000040003F2189048A4209D3002A08DC1106ED
:10091000090F04D0032149074018C00FC007F0BDDC
:1009200001224100120689187F2252069142F6D216
:1009300005214907C84201D59010F0BDFF20C00530
:10094000F0BD002F00DA32461648AA4207D2AB4269
:1009500005D21902090E17D0F80FC007F0BDFF2508
:1009600063002D06AB42F9D84900A942F6D8AB4244
:1009700001D1A942F2D0A94201D1002101E06100D8
:100980004908D0050843F0BD1102090EFBD0FF2035
:100990000243D005F0BD0A460146104654E7000068
:1009A000A21F00000000C07F0102C21504D0012375
:1009B000DB071943002A0ADB9E239A1A02D4084651
:1009C000D0407047FF2241001206914201D9002019
:1009D0007047C017C04370471F22030C02D10F227B
:1009E00000041CD0030E01D10002083A030F01D10C
:1009F0000001121F830F01D18000921E002801DB2D
:100A00004000521ED205511802125118192290406E
:100A100004D3491C002801D1490849000846704701
:100A2000C10FC90700D04042012292071143D3E70A
:100A300001218907D0E7000010B5FF231B06440001
:100A40009C421DD84C009C421AD80346124A0B43C4
:100A500007D4401A02D3EFF3008010BDEFF30080FB
:100A600010BD081A06D2EFF3008001219043C90798
:100A7000084302E0EFF30080904380F3008810BD4C
:100A80000D231B041A4204D01146002000F006F882
:100A900010BD00F01BF810BD00000090C80212D578
:100AA0004803400F002804D0C803C04301218840F8
:100AB0007047EFF300800001000903210907084394
:100AC00080F30088704700207047000010B502488E
:100AD00000F02BF810BD00000000C07F754600F04C
:100AE00053F8AE46050069465346C008C000854627
:100AF00018B020B5FFF74AFB60BC00274908B6468E
:100B00000026C0C5C0C5C0C5C0C5C0C5C0C5C0C51C
:100B1000C0C5403D49008D46704710B50446C046EB
:100B2000C0462046FFF711FB10BD10B50C4611075B
:100B3000090F092904D00A290AD008290CD104E098
:100B400011460820FFF7AAFF06E0510606D501E08E
:100B5000510601D50120C007214610BDD10607D599
:100B600001010909CC084907000E0006044309E009
:100B7000410F20024907000A0143200E00061D22F2
:100B8000D14101430846E7E700487047BC01002017
:100B900001491820ABBEFEE72600020070470000A6
:100BA00010B500240421164800F086F8002826D04D
:100BB0000421134800F02AF81248008812490988D5
:100BC000884206DB01200F4988700D4800F0B9F912
:100BD00015E00B4800F054F804460A48C088A042CB
:100BE00001DA0848C4800121054800F01DF80448D6
:100BF00000F0A2F903480088401C0249088010BD9B
:100C0000002401403200002056000020016070479F
:100C1000002904D0826801231A43826003E08268BD
:100C200002231A4382607047002905D0C26801235D
:100C30001B041A43C26004E0C26801231B049A43E8
:100C4000C260704730B501460020002200238C6846
:100C50000125ED072C438C6000BF8C68E30FDB0798
:100C6000521C0F242403A24201D0002BF5D18C6822
:100C7000E40FE407002C01D1086C00E0002030BD37
:100C80000146086C80B2704730B502460020002350
:100C9000012424060C40002C05D0946801252D0663
:100CA000AC43234600E013681C460C40002C01D0E6
:100CB000012000E0002030BD10B5024600200023D6
:100CC00054680C40234614680C40002C03D0002BC1
:100CD00001D0012000E0002010BD002A03D04368AD
:100CE0000B43436002E043688B434360704700005E
:100CF00010B50022C268084B1A400C7964030B68D7
:100D000023438C682343CC6823430C6923434C69F9
:100D100023431A43C26010BD03D2FFFF00B589B060
:100D20000121480400F0E2FB0121480200F0FEFB33
:100D30000F2001900321684601720021C17201A9B0
:100D40000920C00600F00EFA032001900321684636
:100D500001720021C17201A9184800F003FA0021B4
:100D6000684601740020079005900390089003A93D
:100D70001348FFF7BDFF1248FFF764FF0421104836
:100D8000FFF744FF012204210D48FFF7A6FF0C20C6
:100D9000012181400B4A116000BF01210848FFF783
:100DA00037FF00BF01210648FFF76EFF0028F9D08A
:100DB00000200549087709B000BD00000004004884
:100DC0000024014000E100E0FC000020F3B585B004
:100DD0000C46207F00280DD120606060A061234870
:100DE000A0602348E060002020617F20C005606192
:100DF000012020770598FFF71BFE0490A669354671
:100E0000A168606801F07EFB6061E168606901F0E3
:100E100079FB039060690399FFF716FD2061A169D2
:100E2000049801F063FC0190216901F0DBFB294685
:100E3000029001F067FB0390FFF7B6FD87B27F20B9
:100E4000C005216901F052FC0390616901F0CAFB01
:100E50006060606860610598FFF7EAFD20603846D1
:100E6000FFF7E6FDA061384607B0F0BD17B7D138EF
:100E70006F12033A10B504460720254948612548FA
:100E80000078030001F0F9F806040E18222B354211
:100E9000FF20F53020490880204A0121204601F03A
:100EA00059F933E0FF20F5301B4908801C4A022124
:100EB000A01C01F04FF929E0FF20F5301649088009
:100EC000184A0321201D01F045F91FE03220124984
:100ED0000880154A0421A01D01F03CF916E03220DB
:100EE0000D490880114A05212046083001F032F9E9
:100EF0000CE03220084908800D4A002120460A30C3
:100F000001F028F901200B49087100BF00BF10BD96
:100F1000002401405400002056000020FC00002066
:100F20001C0100203C0100205C0100207C0100200D
:100F30009C0100203200002081680422114381605E
:100F400070478168102211438160704770B5054673
:100F50000C46002D06D1012211030920C00600F025
:100F600075F923E0012D06D1002229030920C006CE
:100F700000F06CF91AE0022D18D1012211030920AA
:100F8000C00600F063F92646E10F8919C903080C71
:100F900001F09EF80022E9020920C00600F056F98F
:100FA000E10F8919C903080C01F092F870BD000027
:100FB0001CB501210320400400F098FA0120000331
:100FC0000090012168460171032141710021817166
:100FD0000121C17169460920C00600F0C3F8012053
:100FE000C003009001216846017103214171002175
:100FF00081710121C17169460920C00600F0B2F873
:10100000C020009000216846017103214171002138
:1010100081710121C1716946014800F0A3F81CBD2E
:101020000004004870B505460C46284600F034F828
:10103000002C0DD1012291020920C00600F006F912
:1010400000220121C9020920C00600F0FFF81CE0BF
:10105000012C0CD10022A1020920C00600F0F6F8F4
:101060000122D1020920C00600F0F0F80DE00022B4
:10107000012189020920C00600F0E8F800220121C0
:10108000C9020920C00600F0E1F870BD10B500F0FB
:10109000C7F900F03DF810BD38B504467D20800149
:1010A0000023C21019460090204601F033F8014990
:1010B000486338BD002C014010B58021074800F07E
:1010C000BBF80446064900F0E7FF4021034800F062
:1010D000B3F80446034900F0DFFF10BD00040048E8
:1010E0000E0000201200002010B50446002C06D18E
:1010F0000122D1030920C00600F0A8F806E0002272
:101100000121C9030920C00600F0A0F810BD0000AD
:101110001CB501210320400400F0E8F903208002FF
:101120000090012168460171032141710021817104
:101130000121C17169460920C00600F013F8302072
:1011400000900121684601710321417100218171E4
:101150000121C1716946024800F004F81CBD00007D
:1011600000040048F0B50A4600210023002400BF17
:101170003DE001258D402B4615681D402C469C42C4
:1011800034D11579012D02D01579022D16D185683B
:101190004F000326BE40B543856055794E00B540EB
:1011A000866835438560858801268E40B5438580F5
:1011B000858896798E40B6B23543858005684F00A4
:1011C0000326BE40B543056015794E00B54006685C
:1011D00035430560C5684F000326BE40B543C56072
:1011E000D5794E00B540C6683543C560491C102905
:1011F000BFD3F0BDF0B5002300244D07EE0E154619
:10120000B5402B46CD10AE0005462035AD594E07F2
:10121000F70E0F26BE40B543CE10B6000746203766
:10122000BD51CD10AE003D46AD591D432C46CD10ED
:10123000AD003E467451F0BD02460020138A0B40BB
:10124000002B01D0012000E000207047002A01D0CF
:10125000816100E0018570470148024908607047DC
:10126000AAAA000000300040F1B582B048490298B7
:1012700001F0B8F98121C9050190FFF7E5FA0746A9
:10128000444901F085F902D80024042565E040496D
:10129000029801F0A7F9412109060190FFF7D4FA5D
:1012A00007463C4901F074F902D80124082554E0AE
:1012B0003749029801F096F98321C9050190FFF79B
:1012C000C3FA0746334901F063F902D80224102516
:1012D00043E02F49029801F085F921214906019048
:1012E000FFF7B2FA07462B4901F052F902D803245E
:1012F000202532E02649029801F074F98521C905BC
:101300000190FFF7A1FA0746224901F041F902D8FE
:101310000424402521E01E49029801F063F943218D
:1013200009060190FFF790FA07461A4901F030F9D3
:1013300002D80524802510E01549029801F052F9E1
:101340008721C9050190FFF77FFA0746114901F08F
:101350001FF902D80624FF2501352846FFF768FB50
:101360000B490190029801F03DF900900199FFF7B7
:101370006BFA0746FFF718FB86B207480749086073
:101380000846446086600648086006480860FEBD5E
:1013900000401C4700007A455555000000300040D1
:1013A000AAAA0000CCCC000010B5002819DA1A4A0D
:1013B00003071B0F083B9B089B00D2588307DC0EDA
:1013C000FF23A3409A438B071B0E8407E40EA34020
:1013D0001A43114B0407240F083CA408A4001A5117
:1013E00018E00E4A03231B02D21883089B00D25830
:1013F0008307DC0EFF23A3409A438B071B0E840751
:10140000E40EA3401A43054B032424021B1984084D
:10141000A4001A5110BD00001CED00E000E100E046
:1014200000B58BB00121480400F060F80121C8022A
:1014300000F07CF80320000201900221684601724E
:1014400003214172002181720121C17201A9092089
:10145000C006FFF787FE022208210920C006FFF719
:10146000C9FE02220921C806FFF7C4FE0021684612
:10147000018441847D20800109906846018508A887
:10148000817208A9184800F025FD60216846818115
:101490000121C181042101820020059000216846BC
:1014A00001834183FF2101318183C18303A90E4858
:1014B00000F058FC08210C4800F09EFC03A90A48E3
:1014C00000F0A6FC0821084800F0F8FC01210648BD
:1014D00000F0FAFB0121044800F008FC0121024859
:1014E00000F012FC0BB000BD002C0140002905D01B
:1014F000054A52690243044B5A6104E0024A5269A8
:101500008243014B5A61704700100240002905D008
:10151000054AD2690243044BDA6104E0024AD26907
:101520008243014BDA61704700100240002905D068
:10153000054A92690243044B9A6104E0024A9269A7
:101540008243014B9A61704700100240074A52687B
:101550007B23DB039A43054B5A601A4652680346C5
:101560000B431A43014B5A607047000000100240C1
:10157000002904D0028840231A43028003E0028835
:10158000014B1A4002807047BFFF000000B587B0D2
:1015900001210803FFF7CAFF182168468182002154
:1015A0000182C1810F210902818100210181C18253
:1015B000FF210531418101214902418202A92348CD
:1015C00000F046F801212148FFF7D2FF012148042D
:1015D000FFF78CFF002204210920C006FFF70AFE56
:1015E000002205210920C006FFF704FE0022062183
:1015F0000920C006FFF7FEFD002207210920C006D2
:10160000FFF7F8FDE02000900221684601710321F8
:10161000417100218171C17169460920C006FFF73F
:10162000A1FD102000900121684601710321417144
:10163000002181710121C17169460920C006FFF7AF
:1016400091FD00F031F807B000BD0000003001400E
:1016500010B500220288C1239B011A400B88CC8957
:101660002343CC8823430C8923434C8923438C890F
:1016700023431A4302808288084B1A408B881A43FE
:1016800082800B8A03820288054B1A404B881A43DA
:101690000280838B034C2340838310BDFFF0000046
:1016A000FBFF0000FFF7000010200921C906886138
:1016B0007047000010200149088170472000004851
:1016C000014600BF08480089022210400028F9D0D6
:1016D0000548818100BF04480089C007C00F002869
:1016E000F9D0014880897047003001401CB50121C4
:1016F0004804FFF7FBFE202000900121684601719D
:1017000003214171002181710121C17169460920C4
:10171000C006FFF727FD00F02EFCFFF7FFFAFFF7EA
:1017200047FCFFF7B3FC00F019F9FFF72FFF00208B
:10173000054908750720488100208875034988817C
:101740000348FFF791FD1CBDE4000020C800002005
:101750000000A0403EB57948807D00281BD100F0F4
:1017600037FE01217D20C000FFF75CFC7448007A41
:10177000002809D000207249087208468089042890
:1017800003DB01206D498875A9E06D488089401C04
:101790006B498881A3E06B48007801280BD10020B9
:1017A0006849087068480088EB2804DA66480088B1
:1017B000401C654908806548007801280BD100204D
:1017C0006249087060480088C82804DD5E480088C7
:1017D000401E5D490880594840881E287DDD5748D5
:1017E0004088FF212D31884277DA5448007D002857
:1017F00006D100F061FE012871D1504908756EE0F4
:101800004F48407A00286AD000204D4948724B4822
:101810000089C8280CDD49480089EB2808DA4749C7
:1018200048684B4900F0B4FE02D200F0E1FD56E0FA
:1018300042480089EB280CDB40480089FA2808DC84
:101840003E494868424900F0A3FE02D200F008FE7B
:1018500045E03A480089AA280CDB38480089C828A6
:1018600008DC364948683A4900F092FE02D200F09E
:101870000DFE34E031480089C82812DB2F4800896A
:10188000EB280EDC2D484168314800F081FE08D875
:101890002A4948682F4900F07BFE02D200F0CAFDB9
:1018A0001DE026480089FA2802DD00F057FD16E009
:1018B00022480089AA2803DA00F064FD0FE00CE05A
:1018C0001E494868234900F0E5FE02D200F032FDCF
:1018D00005E001201949087001E000F067FD184893
:1018E0008078002828D000201549887000F074FC0A
:1018F00000201949087111480178684601700F48A5
:101900004188684641800D494868124900F06AFEE6
:101910000446FFF749F881B268468180074801898B
:101920006846C18005484189684601810A21817263
:101930003221C17200F00CFB3EBD0000E40000202B
:10194000C80000200E0000201C0000201200002013
:101950000000AA420000C842320000200EB501215A
:101960000220FFF7D3FD0D48019000216846018059
:101970000181418069460A4800F0ACFA012108481B
:1019800000F0B4F901221146054800F0E1F91020F9
:1019900001218140034A116000BF0EBD3B1F0000C2
:1019A0000004004000E100E01CB500200190009020
:1019B000334800680121090408433149086000BF29
:1019C0002F48006801214904084000900198401CFC
:1019D00001900098002804D105210903019888424C
:1019E000EED127480068012149040840002802D0B0
:1019F0000120009001E000200090009801283ED1D5
:101A00001120204908601E4840681D49486008466A
:101A100040684860084640687F21C90388431849E8
:101A20004860084640681121090408431449486089
:101A30000721C9040020FFF789FD11480068012132
:101A4000090608430E49086000BF0D4800680121DF
:101A5000490608400028F8D00948406880088000FE
:101A60000749486008464068022108430449486025
:101A700000BF034840680C2108400828F9D11CBD6C
:101A8000001002400020024010B50446601E0949C3
:101A9000884201D9012010BD601E07494861032119
:101AA000081FFFF781FC00200349886107200861B7
:101AB0000020F0E7FFFFFF0000E000E0044800889E
:101AC000002804DD02480088401E01490880704754
:101AD00000000020F8B50025002400260027244837
:101AE00040680C2108400546002D04D0042D06D086
:101AF000082D2AD107E01F481F49086029E01D482A
:101B00001D49086025E01A4840680F2189040840F3
:101B10000446174840680321C90308400646A00C44
:101B2000841C002E04D115486043134908600BE063
:101B30000F48C06A0007000F471C39460D48FEF7E2
:101B400045FB60430C49086003E00A480A49086005
:101B500000BF00BF06484068F0210840000908495E
:101B60000D5C05480068E84003490860F8BD0000C6
:101B70000010024000127A005800002000093D00C9
:101B80005C00002010B51B4800680121084319497A
:101B900008600846406818490840164948600846E9
:101BA000006816490840134908600846006801218A
:101BB000890488430F490860084640683F210904AA
:101BC00088430C4948600846C06A00090001C862A1
:101BD0000846006BFF2154318843064908630846D4
:101BE000406B40084000486300208860FFF7DCFE3F
:101BF00010BD0000001002400CB8FFF8FFFFF6FE19
:101C000010B501212B4800F090F8002851D0FFF7C3
:101C100023FB0121274800F065F8274800887D2133
:101C2000C900884207DB0020234908800120887012
:101C30000872C87104E020480088401C1E490880D2
:101C40001E480089AA2803DC1C480089FA2804DD04
:101C5000012019498872002048721748807A0028AC
:101C600019D01548C0891649884207DA13480089F7
:101C7000D2280ADA11480089E62806DA01200E493E
:101C800048720020C881887208E00B48C089401C57
:101C90000949C88102E00120074948720748807D50
:101CA000002801D000F0F0FAFFF706FA0548FFF728
:101CB000E1F810BD00040040C8000020E40000204E
:101CC00088130000D8000020002904D00288802357
:101CD0001A43028003E00288014B1A4002807047D9
:101CE0007FFF0000CA43028270470000002904D031
:101CF000028801231A43028003E00288014B1A4044
:101D000002807047FEFF0000002907D04422125ACB
:101D10000123DB031A4344231A5205E04422125ADA
:101D200053045B0C44221352704730B50246002026
:101D300000230024158A0D402B4695890D402C4622
:101D4000002B03D0002C01D0012000E0002030BD8A
:101D5000002A03D083890B43838102E083898B436C
:101D60008381704770B5002400220023058C1C4E2F
:101D700035400584028C8388048B194D6F3D2C40BF
:101D8000B51E2C400D882C43751E2A408D892A4390
:101D90004D882A43134DA84208D0134DA84205D0C0
:101DA000124DA84202D0124DA84212D10C4DED1F87
:101DB0002A40CD892A430A4DED1E2A408D882A43A8
:101DC000074DFF3D2B400B4D2B400D8A2B434D8A79
:101DD0002B43838004838D684563028470BD0000BB
:101DE000FEFF0000002C0140004001400044014083
:101DF00000480140FFFD00000A460021018B034B13
:101E000019400B461343194601837047F7FF000042
:101E100070B5002400220023058C214E3540058436
:101E2000028C8388048B1F4D2C401F4D2C400D7855
:101E30002D062D0C2C431A4D103D2A408D892D0561
:101E40002D0C2A434D882D052D0C2A43174DA842F1
:101E500002D0174DA8421CD1164D2B400D8AAD045F
:101E60002D0C2B43114DA84213D10D4D703D2A402E
:101E7000CD892D052D0C2A43094D303D2A408D88F2
:101E80002D052D0C2A430C4D2B404D8AAD042D0CF5
:101E90002B43838004838D688563028470BD0000BA
:101EA000EFFF0000FF8F0000FFFC0000002C01404E
:101EB00000400140FFFB0000FFF700000A46002140
:101EC000018B034B194013061B0C19430183704708
:101ED000FFF7000000220288154B984206D001232C
:101EE0009B07984202D0134B984203D1124B1A40E1
:101EF0004B881A43114B984203D0114B1A400B895F
:101F00001A4302804B68C3620B880385084B9842D2
:101F100008D00C4B984205D00B4B984202D00B4B8B
:101F2000984201D18B7A0386012383827047000097
:101F3000002C0140000400408FFF00000010004012
:101F4000FFFC000000400140004401400048014007
:101F500030B5044625460023FFF7ACFB002305E01F
:101F60005900685AFFF7ACFB581CC3B2062BF7DBCD
:101F7000FFF79AFB30BD10B501218803FFF7D6FAB1
:101F800001214804FFF7B2FA01220921C806FFF730
:101F900031F901220A210920C006FFF72BF910BDF3
:101FA00010B51549154800F03CF800281FD013481B
:101FB00000F05EF812490870084600780A280BD035
:101FC000084600780F49104A126888540E48006885
:101FD000401C0D4908600AE000200A490A4A1268BC
:101FE0008854012009490870002007490860024907
:101FF000024800F00DF810BD050105000038014051
:102000000C0000206C0000200800002004000020CC
:1020100010B5002300220B0C01249C4022460262D2
:1020200010BD70B502460B4600240021002500209B
:102030001E04350ED9B201268E403146012D02D143
:102040001668314006E0022D02D15668314001E0A9
:10205000966831401C0C0126A6403446D6693440AF
:10206000002903D0002C01D0012000E0002070BD29
:102070000146888CC005C00D704730B47446641E9C
:102080002578641CAB4204D3635D5B00E31830BC6D
:1020900018471D46F8E70000002812D14A88C82AD0
:1020A0000ADC4A88521C4A8000224A704A88322A36
:1020B0000AD101220A7007E001224A70034A4A80CD
:1020C00002E000224A804A70704700003408000095
:1020D00070B504467D21C90007480068FEF776F810
:1020E0000546FFF7D1FC0548048000BF034800887F
:1020F0000028FBD170BD0000580000200000002027
:10210000FFF740FDFFF7E6FCFFF7F0FA01E0FFF70D
:1021100021FBFCE7F8B506460C4617461D46321B68
:10212000069B5B1B5A431046391BFEF759F84019B2
:1021300080B2F8BDF8B506460C4617461D46321B60
:10214000069B5B1B5A431046391BFEF749F84019A2
:1021500080B2F8BD70B504460D46164619480078A1
:10216000142828DB1848C078002813D117480078B5
:1021700080001749085817498862002012490880D2
:1021800088700120C8701348FEF7D6FE00200E4963
:10219000C88015E00C488078012811D10020094939
:1021A00008700949C870C8883146FEF70FFE2080C4
:1021B0000648057004E003480078401C0149087097
:1021C00070BD0000300000203200002054000020CC
:1021D0003C00002000240140F8B526480079012881
:1021E00046D100202349087101202349C87523499D
:1021F0000888FEF71DFC064621480168304600F0BD
:10220000F1F905461E484168284600F07BF904466E
:10221000FEF7CAFB1849488018494888FEF708FCB1
:10222000064617480168304600F0DCF905461448B8
:102230004168284600F066F90446FEF7B5FB0E49F2
:1022400008810E498888FEF7FCFA064600220D4BED
:10225000FEF7AAF80446FEF769F807494860074800
:10226000C0888881054800890882044840894882DE
:10227000F8BD000032000020E4000020D80000205B
:10228000200000200000594038B500252848C07DB6
:1022900000284CD000202649C8750846408896285A
:1022A00040DB0846008996283CDB08460089DF2889
:1022B00012DD08460089DC3885B27D20C00043105D
:1022C0005022002100902846FFF734FF04460121E8
:1022D0002046FEF7A7FE2AE015480089DA2813DA1F
:1022E00013480089DC21081A85B27D20C000431004
:1022F0005022002100902846FFF71CFF04460021D1
:102300002046FEF78FFE12E009480089DA280EDD2C
:1023100007480089DF280ADA02217D20C000FEF785
:1023200081FE04E002217D20C000FEF77BFE38BD67
:10233000E400002010B50820074908700020FEF7CF
:10234000D3FEFF21F5310220FEF700FE00200249F6
:102350004881487510BD0000E400002010B506203B
:10236000074908700020FEF7BFFEFF21F53102206B
:10237000FEF7ECFD002002494881487510BD0000C1
:10238000E400002010B50720074908700020FEF780
:10239000ABFEFF21F5310220FEF7D8FD00200249F7
:1023A0004881487510BD0000E400002010B50A20E7
:1023B000064908700020FEF797FE00210846FEF748
:1023C000C5FD00200149487510BD0000E400002053
:1023D00010B5002005490870FEF786FE0021012097
:1023E000FEF7B4FD00200149487510BDE40000204F
:1023F00010B502200E4908700120FEF775FE0C484A
:10240000407D00280ED100210846FEF79FFDFF20E9
:10241000F530FFF75DFE00210120FEF797FD01205A
:1024200003494875024800890149488110BD0000F0
:10243000E400002010B50520084908700120FEF7CF
:1024400053FEFF21F5310220FEF780FD034800898D
:10245000024948810020487510BD0000E4000020BA
:1024600010B50320084908700120FEF73DFEFF214A
:10247000F5310220FEF76AFD0348008902494881D0
:102480000020487510BD0000E400002010B50420B5
:10249000084908700120FEF727FEFF21F5310220D0
:1024A000FEF754FD03480089024948810020487521
:1024B00010BD0000E400002010B51048C0790128CC
:1024C0001AD100200D49C8710D484089002811DD3E
:1024D00001200B4908700020FEF706FE00210120B4
:1024E000FEF734FD06484089401E0549488100201A
:1024F000487510BD0120FCE700BFFAE7C8000020C6
:10250000E400002070B501250400ED074C4020D404
:10251000441A01D2001B0919C60D4B00F2B2FF2A62
:1025200029D01B0E2CD000020C02D31A2C43DC4005
:102530002843051910D2280A02D3401C6D0611D079
:10254000761EF6058019FF2A00DA70BDC00DC005A1
:1025500070BD694000F0D0F801200543C541521C10
:10256000761CE8E764089C40C90161408900E7D116
:102570000124A043E4E71B0E440200D0034870BDD1
:10258000002AFCD1C00FC00770BD00BF0000C07F93
:1025900001230200DB050A430DD4DA4203D49A4238
:1025A00007D488427047D84214D4D94212D4884202
:1025B000704780427047DA4203D59A42F9D581428A
:1025C00070475B004200DA4204D24A00DA4201D28C
:1025D0008142704710B5024AFEF72EFA10BD00BFC7
:1025E0000900160470B5420064414B005C41120EB4
:1025F00039D01B0E38D0FF2A3CD0FF2B3AD04002F6
:102600004902400A490A060045184E43000A090AD1
:10261000D2184843ED017F3A0104731A4019190C8E
:102620004318990F04D001215B0849075B1A521C1B
:10263000D80904D3401CF50301D19D0607D0FF2A19
:1026400008D2D50506D0E4072043401970BD012506
:10265000A843F4E7002A01DCE00770BD2402FF2054
:102660002043C00570BD1B0EFF2A03D0FF2B01D0F5
:10267000E00770BDFF2645003606B54206D84D007E
:10268000B54203D8D218FF2A00D0E7E7004870BD52
:102690000000C07F01230A00DB0502430DD4DA42AB
:1026A00003D49A4207D481427047D94214D4D84205
:1026B00012D48142704789427047DA4203D59A4268
:1026C000F9D5884270475B004A00DA4204D24200E2
:1026D000DA4201D2884270474840414010B5024A70
:1026E0004840FEF7A9F910BD0900160470B5012590
:1026F0000400ED074C4022D4441A02D26C40001B67
:102700000919C60D4B00F2B2FF2A4BD01B0E50D058
:1027100000020C02D31A2C43DC40A843051B05D54C
:10272000AD0019D36D08761E521E37D0F605280A63
:1027300001D2801970BD70416D0603D070BD694033
:10274000FFF7E6FE9C4009026140490001D0401EAF
:1027500070BD0124A04370BD6D081DD001202B0C5D
:1027600001D12D0410302B0E01D12D0208302B0F7A
:1027700001D12D01001DAB0F01D1AD00801CEB0F6D
:1027800001D16D00401C6D00361A121A680AF50559
:102790004019012A02DB70BD002070BDC036300A2E
:1027A000C00770BD1B0E440201D1FF2B00D10248AF
:1027B00070BD002AF0D070BD0000C07F80807F7E99
:1027C0007D7C7B7A797877767675747372717170A7
:1027D0006F6E6E6D6C6C6B6A6A6968686766666559
:1027E0006464636362616160605F5F5E5E5D5D5CE7
:1027F0005C5B5B5A5A595958585757565655555558
:102800005454535352525251515050504F4F4F4EB7
:102810004E4D4D4D4C4C4C4B4B4B4A4A4A49494905
:102820004848484747474746464645454544444447
:102830004443434343424242424141418182838473
:1028400085868788898B8C8D8E8F919293959697AC
:10285000999A9C9D9FA0A2A3A5A7A8AAACAEB0B22E
:10286000B3B5B7B9BCBEC0C2C5C7C9CCCED1D4D729
:10287000D9DCDFE2E6E9ECF0F3F7FAFE9C28000889
:10288000000000206C000000F80000080829000883
:102890006C000020B40700001401000800000000D4
:1028A0000000000000000000000000000000000028
:1028B0000000000000000000DC00000083C04A3E71
:1028C0004DF3E0C0CDCC4C3E000010C10000000034
:1028D00000000000000000000100000002000000F5
:1028E00004000000080000000001000000020000D9
:1028F0000000000000127A0000000000000000004C
:082900000102030406070809A7
:040000050800015995
:00000001FF
